:0400000091EF10F07C
:101AE600C58AC58812009EA6FED79E961200C5809E
:101AF60076EC0DF01200C58476EC0DF01200C5866A
:101B060076EC0DF01200C58276EC0DF012009EAA5E
:061B1600FED7AE501200E4
:101B1D00303030303030000101016E01C0C9FF7628
:101B2D00EC0DF0120082EC0DF073EC0DF0C95012BB
:101B3D0000016E9EA8FED701C0ADFF12000F0EC1B1
:101B4D006E1E0E936EF19E8150E009816E1200940F
:101B5D00869488280EC66E310EC86EC79CC78E9EA1
:101B6D0096A1961200046E000E016E035010EC0E3D
:101B7D00F0010E016E045010EC0EF01200A5EC0DEC
:101B8D00F0BBEC11F0D2EC0DF0AEEC0DF077EC0EED
:101B9D00F08CEC0EF01200C08EC09AC088C096C0BA
:101BAD0090C082C094C292C19AC198C46AC36AC2DD
:101BBD00801200010E3D24016E026A000E02220009
:101BCD000E046E030E036EC2EC10F001503D6E124A
:101BDD0000036E7AEC0DF0D00E93EC0DF0035093E4
:101BED00EC0DF0025093EC0DF07EEC0DF0120009AF
:101BFD00C001F00AC002F0036A8E0E046E000E05DD
:101C0D006E0EEC12F001C009F002C00AF003C00B19
:101C1D00F01200026E01A002D0828201D0829202E7
:101C2D00C083FF82848294958E8280829282848288
:101C3D009483BEFCD78290959E1200026E080E030F
:101C4D006E046AD89002340434046ED890023601C2
:101C5D0050045CD8A002D00150045E032EF2D704CC
:101C6D00501200026E7AEC0DF0A00E93EC0DF00206
:101C7D005093EC0DF086EC0DF0A10E93EC0DF09958
:101C8D00EC0DF0036E7EEC0DF0035012000AD00245
:101C9D00C0F6FF03C0F7FF0800F5509FEC0DF002F2
:101CAD004A032A02C0F6FF03C0F7FF0800F55000F3
:101CBD0009D8B41200ECD7026E7AEC0DF0D00E9369
:101CCD00EC0DF0025093EC0DF086EC0DF0D10E936F
:101CDD00EC0DF099EC0DF0036E7EEC0DF00350124F
:101CED0000000E62EC0EF0046E04507F0B026E00CD
:101CFD000EEFEC0DF0020E62EC0EF0046E0450BF10
:101D0D000B026E020EEFEC0DF01200948E949CAC53
:101D1D009CAC8AAC98AC96AC84AB8EAB9CAB88B8C3
:101D2D009EB896B892B8900A0EAF6E9D989E989DEB
:101D3D009A9E9A1200000E016E010E10EC0EF03BF1
:101D4D0004D8A405D03E50D8B412003E06120002AD
:101D5D000E3B18D8A41200030E3E6012003E2A124C
:101D6D0000056E7AEC0DF0A00E93EC0DF00550937E
:101D7D00EC0DF0025093EC0DF07EEC0DF00B0E041B
:101D8D006EB80E036E0306D8A004060328FBE1040B
:101D9D0028D8B41200F7D7000E046E000E036E1093
:101DAD00D0000E066E000E056E054A062A06BEFC14
:101DBD00D7E80E055C030E0658D8A0F6D7034A04E3
:101DCD002A0150035C02500458D8B01200E9D70222
:101DDD006E046A0150D8B415D0010E036E03D0D82D
:101DED00900136032A01AEFBD7D89004360150027C
:101DFD005CD8A003D00150025E0480D8900132035C
:101E0D002EF3D704501200076E07C003F0D89003CD
:101E1D0036D8900336C250C30B0310C26EC282C2B5
:101E2D00B2FED7C350C4CF03F0046A03C004F0035D
:101E3D006A0310056E0450066E05C001F006C0025F
:101E4D00F01200016E0104D8A412D0F9EC10F03993
:101E5D006E3928D8B406D04B50D8B403D04B6A395C
:101E6D005012003928D8A409D0010E4B6E06D001AE
:101E7D0050D8A403D0F9EC10F01200FF0E1200039D
:101E8D00500410D8B418D0010E056E04D0D89003AC
:101E9D00360436052A04AEFAD70350015C0450020D
:101EAD0058D8A004D00350015E0450025AD89004B3
:101EBD00320332052EF1D701C001F002C002F0123B
:101ECD0000020E3C18D8A405D03650D8B414D03624
:101EDD000612D03C04D8A40FD0FF0E32241E6EFF84
:101EED000E33201F6E3650206E216A1E50205C1F4F
:101EFD00502158D8A0362A000E1B6E000E1A6E7394
:101F0D00EC15F0120043C004F0043AF00E04164430
:101F1D0050D00F0410026E020EEFEC0DF045C00410
:101F2D00F0043AF00E04164650D00F0410026E0164
:101F3D000EEFEC0DF047C004F0043AF00E04164815
:101F4D0050D00F0410026E000EEFEC0DF0120000D9
:101F5D000E066E000E056E03500410D8B41CD00191
:101F6D000E076E04D0D89003360436072A04AEFA55
:101F7D00D7D890053606360350015C04500258D868
:101F8D00A005D00350015E0450025A0580D890047C
:101F9D00320332072EEDD705C001F006C002F01254
:101FAD00003A04D8A402D0080E0ED0020E3A18D86A
:101FBD00A40CD0070E376002D0372A19D0080E377F
:101FCD0018D8A415D0010E376E12D0030E3A18D8BA
:101FDD00A40DD0080E376005D0010E376402D0373E
:101FED000606D0080E3718D8B4EDD701D0376A35AC
:101FFD006A65EC12F01200020E62EC0EF0046E0136
:10200D000E62EC0EF0056E000E62EC0EF0066E0424
:10201D00AC04D004380F0B010B03D004380F0B03A5
:10202D000B300F436E04500F0B300F446E05380FFD
:10203D000B0F0B300F456E05500F0B300F466E0614
:10204D00380F0B0F0B300F476E06500F0B300F482C
:05205D006E496A12004B
:1020630056494557204C4F47202020202020202030
:1020730000434C454152204C4F4720202020202034
:102083002000444F574E4C4F4144204C4F47202093
:102093002020005345542054494D45202020202022
:1020A300202020004F4E00474E00473100473200AA
:1020B30047330047340047350047520043200000B0
:1020C3000E016E055010EC0EF016D0010E016E03DA
:1020D300C0F6FF04C0F7FFF86A050EF76403D008E3
:1020E30000F55005D0F6CFE9FFF7CFEAFFEF501028
:1020F300EC0EF0034A042A03C0F6FF04C0F7FFF80E
:102103006A050EF76403D00800F55005D0F6CFE951
:10211300FFF7CFEAFFEF500009D8B41200D6D76318
:102123000EF66E200EF76E000EF86E00EE60F010E5
:10213300EE5FF00900F5CFEEFFE550E150FAE11D47
:102143000EF66E1B0EF76E000EF86E00EE43F010E7
:10215300EE09F00900F5CFEEFFE550E150FAE10199
:10216300EE00F0AA0EEE6AE806FDE100EE32F01191
:102173000EEE6AE806FDE1000EF86E0001F9EF15B8
:10218300F0066A02AE06D0016C021ED8B0022A0124
:102193000E066E04AE04D0036C041ED8B0042A03EA
:1021A300500410D8B418D0010E056E04D0D8900393
:1021B300360436052A04AEFAD70350015C045002F4
:1021C30058D8A004D00350015E0450025AD890049A
:1021D300320332052EF1D70650D8B404D0016C0275
:1021E3001ED8B0022A01C001F002C002F012008121
:1021F3009A818C818E81B202D0010E120081B402C9
:10220300D0040E120081B602D0070E120081B8026C
:10221300D00A0E1200818A819C818E81B202D00283
:102223000E120081B402D0050E120081B602D0084E
:102233000E120081B802D00B0E1200818A818C81AC
:102243009E819E81B202D0030E120081B402D00699
:102253000E120081B602D0090E120081B802D00C12
:102263000E1200FF0E1200EB0E036E2F0E046E8093
:102273000E056E61EC10F002EC10F0C20E036E431B
:1022830050B9EC0DF0C30E036E4450B9EC0DF0C41D
:102293000E036E3A0EB9EC0DF0C50E036E4550B940
:1022A300EC0DF0C60E036E4650B9EC0DF0C70E03ED
:1022B3006E3A0EB9EC0DF0C80E036E4750B9EC0D33
:1022C300F0C90E036E4850B9EC0DF03750030D2ED4
:1022D30050F324306E30C003F0046ACB0E056E61F8
:1022E300EC10F0C1EC12F01200030E3E6021D0FCA2
:1022F3000E036E2F0E046E800E056E61EC10F03E21
:1023030050110DF350600F066E06C003F0046A828D
:102313000E056E61EC10F03E50110DF350710F0677
:102323006E06C003F0046AC20E056E61EC10F01273
:1023330000FC0E036E2F0E046EC00E056E61EC10D2
:10234300F03E50110DF3504F0F066E06C003F0041C
:102353006A820E056E61EC10F03E50110DF3506071
:102363000F066E06C003F0046AC20E056E61EC1020
:10237300F01200956A9450F80B946E8290C30E038A
:102383006ECD0EE82EFED7032EFCD70000000E0103
:102393006E330E10EC0EF01B0E036E9E0EE82EFE37
:1023A300D7032EFCD700D0000E016E330E10EC0EB7
:1023B300F0A60EE82EFED700D0000E016E330E10ED
:1023C300EC0EF000D000D00000000E016E020E10E3
:1023D300EC0EF0A60EE82EFED700D0000E016E38EC
:1023E3000E10EC0EF0A60EE82EFED700D0000E0164
:1023F3006E010E10EC0EF0040E036E3E0EE82EFE80
:10240300D7032EFCD7000E016E0C0E10EC0EF0A6B7
:102413000EE82EFED700D012000450D8B405D00128
:102423005002100310D8A40CD0000E016E000E024F
:102433006E000E036E1200042AD89003320232019A
:1024430032000E0114066E000E0214076EFE0E0318
:1024530014086E065007100810D8B40CD0ECD7043B
:102463002A010E0126000E0222000E0322D8900339
:102473003202320132000E0114066E000E021407FE
:102483006EFF0E0314086E065007100810D8B4062A
:10249300D0E6D70406D89001360236033602BE03CF
:1024A300D0020E0460F6D704A0029ED89004320432
:1024B3005003120550D8A4038E01C001F002C002DC
:1024C300F003C003F0120032C001F033C002F00089
:1024D3000E046E0A0E036E46EC0FF00150110DF35D
:1024E300CF38F0000E076E000E066E0650430FD96C
:1024F3006EDA6ADF50026E3850B7EC0EF0382A06F7
:102503004A072A07BEF2D7075004E1060E065CD835
:10251300A0ECD7000E096E000E086E3750030DF3C2
:1025230050A40F0824D96EDA6ADF50026E3850B710
:10253300EC0EF0382A084A092A09BEEFD7095004DD
:10254300E1020E085CD8A0E9D7000E0B6E000E0A5C
:102553006E0A50400FD96EDA6ADF50026E3850B7F8
:10256300EC0EF0382A0A4A0B2A0BBEF2D70B5004A2
:10257300E1020E0A5CD8A0ECD7324A332A120000DB
:102583000E2B6E000E2A6E3750D8A404D0000E2DE9
:102593006E000E30D0040E0AEC0FF001C02AF002D8
:1025A300C02BF0AE0E0F6E230E106E410E116E2A6D
:1025B300C009F02BC00AF0FEEC0DF009C00CF00AC4
:1025C300C00DF00BC00EF08CEC13F00CC01BF00D23
:1025D300C01CF00EC01DF023EC13F01BC02CF01C2C
:1025E300C02DF02D5004E1640E2C5CD8A004D00063
:1025F3000E2D6E630E2C6E2CC001F02DC002F00068
:102603000E046E0A0E036EAEEC0FF00150300F4055
:102613006E2CC001F02DC002F0000E046E0A0E03F2
:102623006E46EC0FF00150300F416E426ACE0E033E
:102633006E4050B9EC0DF0CF0E036E4150B9EC0D66
:10264300F012001DC01FF0206A216A1C341F3601DE
:10265300E320801F50296E2950D8A409D0000E1BF7
:102663006E000E1C6E000E1D6E000E1E6E12001705
:102673000E1F6E1BC020F01CC021F01DC022F01FD6
:1026830028236E04D0D890223221322032232EFA0E
:10269300D72050246E1C8EFF0E1B16FF0E1C160037
:1026A3000E1D161B50256E1C50266E1D50276E28BE
:1026B3006A8E0E295E29AE0DD02950800A8F0FD85D
:1026C300A0CDD7D8902832273226322532293EF999
:1026D300D70DD0170E296407D0C1D7D89025362639
:1026E300362736283629062950D8A4F7D72450D8B8
:1026F300B408D0281E271E261E256C000E2622276E
:1027030022282225C01BF026C01CF027C01DF0285C
:10271300C01EF012000EC012F0136A146A0D3412B8
:102723003601E313801250196E1950D8A407D00054
:102733000E0C6E000E0D6E000E0E6E120011C01206
:10274300F0136A146A1034123601E3138012501A1C
:102753006E1A50D8A407D0000E0C6E000E0D6E003A
:102763000E0E6E1200000E166E000E176E000E187F
:102773006E1A50890F195E0EC01AF011501A1A8082
:102783000E1A160D8EFF0E0C16FF0E0D16000E0EF2
:1027930016108EFF0E0F16FF0E1016000E111618D0
:1027A3000E156ED8901636173618360F500C5C106F
:1027B300500D5811500E58D8A007D00F500C5E1072
:1027C300500D5A11500E5A1680D8900C360D360EF5
:1027D30036152EE7D716C001F017C002F018C00354
:1027E300F019C004F01AC005F00EEC12F001C00C91
:1027F300F002C00DF003C00EF01200000E026E5A7C
:102803000E016ED2EC0EF04A50D8A402D0010E0194
:10281300D0000E4A6E520E036E2F0E046E800E050C
:102823006E61EC10F007500810D8A40ED04A50D8AF
:10283300B40BD0C40E036EFF0EB9EC0DF0C50E033E
:102843006EFF0EB9EC0DF00AD0C40E036E4350B9FF
:10285300EC0DF0C50E036E4450B9EC0DF0C60E033B
:102863006E3A0EB9EC0DF007040810D8A40ED04A46
:1028730050D8B40BD0C70E036EFF0EB9EC0DF0C8E1
:102883000E036EFF0EB9EC0DF00AD0C70E036E45B2
:1028930050B9EC0DF0C80E036E4650B9EC0DF0C9FB
:1028A3000E036E3A0EB9EC0DF0020E07180810D89D
:1028B300A40ED04A50D8B40BD0CA0E036EFF0EB983
:1028C300EC0DF0CB0E036EFF0EB9EC0DF01200CA47
:1028D3000E036E4750B9EC0DF0CB0E036E4850B9A2
:1028E300EC0DF0120043500A0DF3504424F00F0B8B
:1028F3006E45500A0DF3504624F00F0C6E47500AF4
:102903000DF3504824F00F0D6E2DD0010E0B240152
:102913006E026A000E0222000E046E180E036EC2CF
:10292300EC10F001500B6E30D0010E0C24016E023E
:102933006A000E0222000E046E3C0E036EC2EC10FF
:10294300F001500C6E21D0010E0D24016E026A00BD
:102953000E0222000E046E3C0E036EC2EC10F00158
:10296300500D6E12D007C009F008C00AF00A5000DB
:102973000AD8A40AD00950000AD8B4C7D7010AD884
:10298300B4D3D7030AD8B4DFD70A0E016E0B50EEC7
:10299300EC0EF0300F436E0A0E016E0B5024EC0E5A
:1029A300F0300F446E0A0E016E0C50EEEC0EF03058
:1029B3000F456E0A0E016E0C5024EC0EF0300F46DC
:1029C3006E0A0E016E0D50EEEC0EF0300F476E0ADC
:1029D3000E016E0D5024EC0EF0300F486E1200B84D
:1029E3000E036E2F0E046E800E056E61EC10F074F4
:1029F3000E036E2F0E046EC00E056E61EC10F01107
:102A03000E026E2F0E036E4DEC0EF08AEC0DF03FAE
:102A13000E026E2F0E036E4DEC0EF0A2EC16F000BC
:102A23000E176E000E166E46D0000E196E000E18AD
:102A33006E110E1602F3CF12F0F4CF13F01702F358
:102A4300501326000E1224146E010E1320156E1857
:102A5300501424D96E19501520DA6EDF50D8B418EB
:102A6300D0110E1602F3CF12F0F4CF13F01702F3C6
:102A7300501326000E1224146E010E1320156E1827
:102A8300501424D96E19501520DA6EDF509FEC0DC7
:102A9300F0184A192A19BECCD7195004E1110E189F
:102AA3005CD8A0C6D74F0E026E2F0E036E4DEC0EF0
:102AB300F0164A172A3250165C33501758D8A0B470
:102AC300D7630E036E2F0E046E800E056E61EC103D
:102AD300F0850E036E2F0E046EC00E056E61EC10B2
:102AE300F012006FD0020E3F6E000E016E010E1049
:102AF300EC0EF0A2EC16F03550D8A415D0DA0E0384
:102B03006E2F0E046E800E056E61EC10F0365011C0
:102B13000D000EF324036E010EF420046EC00E05A7
:102B23006E61EC10F01200DA0E036E2F0E046E804D
:102B33000E056E61EC10F0C90E036E2F0E046EC00D
:102B43000E056E61EC10F01200010E356E000E33AF
:102B53006E000E326E386AA2EC16F0960E036E2FDC
:102B63000E046E800E056E61EC10F0A70E036E2F3F
:102B73000E046EC00E056E61EC10F0030E026EE8DB
:102B83000E016ED2EC0EF0000E016E010E10EC0E73
:102B9300F076EC11F01200F1EC14F0030E026EE883
:102BA3000E016ED2EC0EF0000E016E010E10EC0E53
:102BB300F0EFD7050E3F6E000E016E010E10EC0E06
:102BC300F012001AC01CF01BC01DF01D50000AD8E3
:102BD300A412001C50000AD8B485D7010AD8B4B493
:102BE300D7030AD8B4D8D7010AD8A41200E2D7C5AC
:102BF300EC0DF03F50D8A407D0A40E2E6E400E2F3C
:102C03006E35EC11F00FD03F04D8A403D076EC114D
:102C1300F009D0050E3F18D8A405D03DC007F00831
:102C23006AFFEC13F0010E28EC0FF0316E78D03F01
:102C330050D8A405D0010E3A6ED7EC0FF0DAD73F87
:102C430004D8A406D03EC01AF01B6A73EC15F0D169
:102C5300D7050E3F18D8A4CDD789EC0FF0000E018D
:102C63006E010E10EC0EF0010E3F6EC3D73F50D82D
:102C7300A402D0020EE0D73F04D8A408D03E6A00D5
:102C83000E016E010E10EC0EF03F6AB3D7050E3F36
:102C930018D8B404D0020E3F18D8A4ABD7000E0145
:102CA3006E010E10EC0EF0DFD73F50D8A4A2D7036D
:102CB3000EC2D73F50D8A406D0000E016E010E10ED
:102CC300EC0EF0D1D73F04D8A405D0010E3B6EA182
:102CD300EC0EF08FD7050E3F18D8A403D0E0EC0D0F
:102CE300F088D7020E3F18D8A484D7010E3C6E6734
:102CF300EC0FF07FD73F04D8A402D0020EE7D7052C
:102D03000E3F18D8A406D03DC007F0086A74EC142F
:102D1300F070D7020E3F18D8A46CD7020EE7D73154
:102D230050010AD8B484D7030AD8B4A0D7010AD86B
:102D3300B4BBD7080AD8B4BDD7070AD8B4DBD75970
:102D4300D73550D8A4B7D0335004E10B0E325CD83A
:102D5300A004D0000E336E0A0E326E000E0F6E000A
:102D63000E0E6EA1D0110E0E02F3CF04F0F4CF05B8
:102D7300F00F02F350052604C008F005C009F01156
:102D83000E0E02F3CF04F0F4CF05F00F02F350055B
:102D930026000E0424D96E010E0520DA6E0E503083
:102DA3000FDF6E000E116E010E106E040E1018115F
:102DB30010D8B405D0070E10181110D8A417D011CD
:102DC3000E0E02F3CF04F0F4CF05F00F02F350051B
:102DD30026000E0424066E010E0520076E10500611
:102DE30024D96E11500720DA6E3A0E24D010041144
:102DF30010D8B40AD00A0E10181110D8B405D00D8B
:102E03000E10181110D8A418D0110E0E02F3CF040F
:102E1300F0F4CF05F00F02F3500526000E0424064C
:102E23006E010E0520076E10500624D96E1150074F
:102E330020DA6E200EDF6E1BD0110E0E02F3CF04CC
:102E4300F0F4CF05F00F02F3500526000E0424061C
:102E53006E010E0520076E10500624D96E1150071F
:102E630020DA6E085038EC0EF0DF6E084A092A109B
:102E73004A112A11BE9AD7115004E1110E105CD8E1
:102E8300A094D7110E0E02F3CF04F0F4CF05F00F88
:102E930002F3500526100E0424D96E010E0520DA24
:102EA3006EDF6A0E4A0F2A32500E5C33500F58D829
:102EB300B0120058D7000E0B6E000E0A6E20D00021
:102EC3000E0D6E010E0C6E110E0A02F3CF04F0F418
:102ED300CF05F00B02F3500526100E0424D96E0122
:102EE3000E0520DA6EDF6A0C4A0D2A0DBEECD70DF3
:102EF3005004E1110E0C5CD8A0E6D70A4A0B2A3223
:102F0300500A5C33500B58D8B01200D9D700436134
:102F13007220426C61636B20426F782E507265732E
:102F23007320616E79206B657920746F20646F77ED
:102F33006E6C6F6164206C6F670A0D002320544927
:102F43004D45202020202045202053500A0D0020ED
:102F530020202048483A4D4D3A535320202020004A
:102F630020202020446F776E6C6F61642020202026
:102F7300002020202070726F6772657373202020F9
:102F8300200020202020436F6D706C6574656420E1
:102F930020200020204C4F475320434C45415245AD
:102FA3004420200020205355434345535346554C5A
:102FB3004C59202000202020446F776E6C6F616491
:102FC30020696E20200020204E4F204C4F47532075
:102FD300464F554E442000232054494D4520202080
:102FE3002020452020535000202054494D452020C7
:0D2FF3002020204556205350002D3E0000A8
:00000001FF
